{
  "contractName": "Contacts",
  "abi": [
    {
      "inputs": [],
      "payable": false,
      "stateMutability": "nonpayable",
      "type": "constructor"
    },
    {
      "constant": true,
      "inputs": [
        {
          "internalType": "uint256",
          "name": "",
          "type": "uint256"
        }
      ],
      "name": "contactList",
      "outputs": [
        {
          "internalType": "uint256",
          "name": "id",
          "type": "uint256"
        },
        {
          "internalType": "string",
          "name": "name",
          "type": "string"
        },
        {
          "internalType": "string",
          "name": "phone",
          "type": "string"
        }
      ],
      "payable": false,
      "stateMutability": "view",
      "type": "function"
    },
    {
      "constant": true,
      "inputs": [],
      "name": "count",
      "outputs": [
        {
          "internalType": "uint256",
          "name": "",
          "type": "uint256"
        }
      ],
      "payable": false,
      "stateMutability": "view",
      "type": "function"
    },
    {
      "constant": false,
      "inputs": [
        {
          "internalType": "string",
          "name": "_name",
          "type": "string"
        },
        {
          "internalType": "string",
          "name": "_phone",
          "type": "string"
        }
      ],
      "name": "createContact",
      "outputs": [],
      "payable": false,
      "stateMutability": "nonpayable",
      "type": "function"
    },
    {
      "constant": false,
      "inputs": [
        {
          "internalType": "uint256",
          "name": "_contactId",
          "type": "uint256"
        },
        {
          "internalType": "string",
          "name": "_name",
          "type": "string"
        },
        {
          "internalType": "string",
          "name": "_phone",
          "type": "string"
        }
      ],
      "name": "editContact",
      "outputs": [],
      "payable": false,
      "stateMutability": "nonpayable",
      "type": "function"
    },
    {
      "constant": false,
      "inputs": [
        {
          "internalType": "uint256",
          "name": "_contactId",
          "type": "uint256"
        }
      ],
      "name": "deleteContact",
      "outputs": [],
      "payable": false,
      "stateMutability": "nonpayable",
      "type": "function"
    }
  ],
  "bytecode": "0x60806040526000805534801561001457600080fd5b5033600160006101000a81548173ffffffffffffffffffffffffffffffffffffffff021916908373ffffffffffffffffffffffffffffffffffffffff1602179055506100d06040518060400160405280600c81526020017f4675726b616e204f7a62656b00000000000000000000000000000000000000008152506040518060400160405280600881526020017f39393939393939390000000000000000000000000000000000000000000000008152506100d560201b60201c565b610207565b60008081548092919060010191905055506040518060600160405280600054815260200183815260200182815250600260008054815260200190815260200160002060008201518160000155602082015181600101908051906020019061013d929190610162565b50604082015181600201908051906020019061015a929190610162565b509050505050565b828054600181600116156101000203166002900490600052602060002090601f016020900481019282601f106101a357805160ff19168380011785556101d1565b828001600101855582156101d1579182015b828111156101d05782518255916020019190600101906101b5565b5b5090506101de91906101e2565b5090565b61020491905b808211156102005760008160009055506001016101e8565b5090565b90565b6108ee806102166000396000f3fe608060405234801561001057600080fd5b50600436106100575760003560e01c806306661abd1461005c5780632a6877a81461007a5780633dce4920146101945780634bed3adc146102e6578063b9ed6fca14610442575b600080fd5b610064610470565b6040518082815260200191505060405180910390f35b6100a66004803603602081101561009057600080fd5b8101908080359060200190929190505050610476565b604051808481526020018060200180602001838103835285818151815260200191508051906020019080838360005b838110156100f05780820151818401526020810190506100d5565b50505050905090810190601f16801561011d5780820380516001836020036101000a031916815260200191505b50838103825284818151815260200191508051906020019080838360005b8381101561015657808201518184015260208101905061013b565b50505050905090810190601f1680156101835780820380516001836020036101000a031916815260200191505b509550505050505060405180910390f35b6102e4600480360360408110156101aa57600080fd5b81019080803590602001906401000000008111156101c757600080fd5b8201836020820111156101d957600080fd5b803590602001918460018302840111640100000000831117156101fb57600080fd5b91908080601f016020809104026020016040519081016040528093929190818152602001838380828437600081840152601f19601f8201169050808301925050505050505091929192908035906020019064010000000081111561025e57600080fd5b82018360208201111561027057600080fd5b8035906020019184600183028401116401000000008311171561029257600080fd5b91908080601f016020809104026020016040519081016040528093929190818152602001838380828437600081840152601f19601f8201169050808301925050505050505091929192905050506105d0565b005b610440600480360360608110156102fc57600080fd5b81019080803590602001909291908035906020019064010000000081111561032357600080fd5b82018360208201111561033557600080fd5b8035906020019184600183028401116401000000008311171561035757600080fd5b91908080601f016020809104026020016040519081016040528093929190818152602001838380828437600081840152601f19601f820116905080830192505050505050509192919290803590602001906401000000008111156103ba57600080fd5b8201836020820111156103cc57600080fd5b803590602001918460018302840111640100000000831117156103ee57600080fd5b91908080601f016020809104026020016040519081016040528093929190818152602001838380828437600081840152601f19601f82011690508083019250505050505050919291929050505061065d565b005b61046e6004803603602081101561045857600080fd5b8101908080359060200190929190505050610731565b005b60005481565b6002602052806000526040600020600091509050806000015490806001018054600181600116156101000203166002900480601f0160208091040260200160405190810160405280929190818152602001828054600181600116156101000203166002900480156105285780601f106104fd57610100808354040283529160200191610528565b820191906000526020600020905b81548152906001019060200180831161050b57829003601f168201915b505050505090806002018054600181600116156101000203166002900480601f0160208091040260200160405190810160405280929190818152602001828054600181600116156101000203166002900480156105c65780601f1061059b576101008083540402835291602001916105c6565b820191906000526020600020905b8154815290600101906020018083116105a957829003601f168201915b5050505050905083565b6000808154809291906001019190505550604051806060016040528060005481526020018381526020018281525060026000805481526020019081526020016000206000820151816000015560208201518160010190805190602001906106389291906107cc565b5060408201518160020190805190602001906106559291906107cc565b509050505050565b600160009054906101000a900473ffffffffffffffffffffffffffffffffffffffff1673ffffffffffffffffffffffffffffffffffffffff163373ffffffffffffffffffffffffffffffffffffffff16146106b757600080fd5b6040518060600160405280848152602001838152602001828152506002600085815260200190815260200160002060008201518160000155602082015181600101908051906020019061070b9291906107cc565b5060408201518160020190805190602001906107289291906107cc565b50905050505050565b600160009054906101000a900473ffffffffffffffffffffffffffffffffffffffff1673ffffffffffffffffffffffffffffffffffffffff163373ffffffffffffffffffffffffffffffffffffffff161461078b57600080fd5b600260008281526020019081526020016000206000808201600090556001820160006107b7919061084c565b6002820160006107c7919061084c565b505050565b828054600181600116156101000203166002900490600052602060002090601f016020900481019282601f1061080d57805160ff191683800117855561083b565b8280016001018555821561083b579182015b8281111561083a57825182559160200191906001019061081f565b5b5090506108489190610894565b5090565b50805460018160011615610100020316600290046000825580601f106108725750610891565b601f0160209004906000526020600020908101906108909190610894565b5b50565b6108b691905b808211156108b257600081600090555060010161089a565b5090565b9056fea265627a7a723158204a1b685611adfd4c862b08ac8c70081d17f7ef70c50cde3571178e9e1016250f64736f6c63430005100032",
  "source": "// SPDX-License-Identifier: GPL-3.0\npragma solidity >=0.4.22 <0.9.0;\n\ncontract Contacts {\n    uint256 public count = 0;\n    address owner;\n    constructor() public {\n        owner = msg.sender;\n        createContact(\"Furkan Ozbek\", \"99999999\");\n    }\n\n    struct Contact {\n        uint256 id;\n        string name;\n        string phone;\n    }\n\n    modifier onlyOwner {\n        require(msg.sender == owner);\n        _;\n    }\n    mapping(uint256 => Contact) public contactList;\n\n    function createContact(string memory _name, string memory _phone) public {\n        count++;\n\n        contactList[count] = Contact(count, _name, _phone);\n    }\n\n    function editContact(uint256 _contactId, string memory _name, string memory _phone) public onlyOwner{\n        contactList[_contactId] = Contact(_contactId, _name, _phone);\n    }\n\n    function deleteContact(uint256 _contactId) public onlyOwner{\n        delete contactList[_contactId];\n    }\n}\n",
  "sourcePath": "/Users/afozbek/Desktop/projects/example-blockchain/contracts/contracts/Contacts.sol",
  "compiler": {
    "name": "solc",
    "version": "0.5.16+commit.9c3226ce.Emscripten.clang"
  },
  "schemaVersion": "3.4.4",
  "updatedAt": "2022-02-03T14:32:57.271Z",
  "networkType": "ethereum",
  "devdoc": {
    "methods": {}
  },
  "userdoc": {
    "methods": {}
  }
}