{
  "contractName": "Contacts",
  "abi": [
    {
      "inputs": [],
      "payable": false,
      "stateMutability": "nonpayable",
      "type": "constructor"
    },
    {
      "constant": true,
      "inputs": [
        {
          "internalType": "uint256",
          "name": "",
          "type": "uint256"
        }
      ],
      "name": "contactList",
      "outputs": [
        {
          "internalType": "uint256",
          "name": "id",
          "type": "uint256"
        },
        {
          "internalType": "string",
          "name": "name",
          "type": "string"
        },
        {
          "internalType": "string",
          "name": "phone",
          "type": "string"
        }
      ],
      "payable": false,
      "stateMutability": "view",
      "type": "function"
    },
    {
      "constant": true,
      "inputs": [],
      "name": "count",
      "outputs": [
        {
          "internalType": "uint256",
          "name": "",
          "type": "uint256"
        }
      ],
      "payable": false,
      "stateMutability": "view",
      "type": "function"
    },
    {
      "constant": false,
      "inputs": [
        {
          "internalType": "string",
          "name": "_name",
          "type": "string"
        },
        {
          "internalType": "string",
          "name": "_phone",
          "type": "string"
        }
      ],
      "name": "createContact",
      "outputs": [],
      "payable": false,
      "stateMutability": "nonpayable",
      "type": "function"
    },
    {
      "constant": false,
      "inputs": [
        {
          "internalType": "uint256",
          "name": "contactId",
          "type": "uint256"
        }
      ],
      "name": "deleteContact",
      "outputs": [],
      "payable": false,
      "stateMutability": "nonpayable",
      "type": "function"
    }
  ],
  "bytecode": "0x60806040526000805534801561001457600080fd5b5033600160006101000a81548173ffffffffffffffffffffffffffffffffffffffff021916908373ffffffffffffffffffffffffffffffffffffffff1602179055506100d06040518060400160405280600c81526020017f4675726b616e204f7a62656b00000000000000000000000000000000000000008152506040518060400160405280600881526020017f39393939393939390000000000000000000000000000000000000000000000008152506100d560201b60201c565b610207565b60008081548092919060010191905055506040518060600160405280600054815260200183815260200182815250600260008054815260200190815260200160002060008201518160000155602082015181600101908051906020019061013d929190610162565b50604082015181600201908051906020019061015a929190610162565b509050505050565b828054600181600116156101000203166002900490600052602060002090601f016020900481019282601f106101a357805160ff19168380011785556101d1565b828001600101855582156101d1579182015b828111156101d05782518255916020019190600101906101b5565b5b5090506101de91906101e2565b5090565b61020491905b808211156102005760008160009055506001016101e8565b5090565b90565b6106b3806102166000396000f3fe608060405234801561001057600080fd5b506004361061004c5760003560e01c806306661abd146100515780632a6877a81461006f5780633dce492014610189578063b9ed6fca146102db575b600080fd5b610059610309565b6040518082815260200191505060405180910390f35b61009b6004803603602081101561008557600080fd5b810190808035906020019092919050505061030f565b604051808481526020018060200180602001838103835285818151815260200191508051906020019080838360005b838110156100e55780820151818401526020810190506100ca565b50505050905090810190601f1680156101125780820380516001836020036101000a031916815260200191505b50838103825284818151815260200191508051906020019080838360005b8381101561014b578082015181840152602081019050610130565b50505050905090810190601f1680156101785780820380516001836020036101000a031916815260200191505b509550505050505060405180910390f35b6102d96004803603604081101561019f57600080fd5b81019080803590602001906401000000008111156101bc57600080fd5b8201836020820111156101ce57600080fd5b803590602001918460018302840111640100000000831117156101f057600080fd5b91908080601f016020809104026020016040519081016040528093929190818152602001838380828437600081840152601f19601f8201169050808301925050505050505091929192908035906020019064010000000081111561025357600080fd5b82018360208201111561026557600080fd5b8035906020019184600183028401116401000000008311171561028757600080fd5b91908080601f016020809104026020016040519081016040528093929190818152602001838380828437600081840152601f19601f820116905080830192505050505050509192919290505050610469565b005b610307600480360360208110156102f157600080fd5b81019080803590602001909291905050506104f6565b005b60005481565b6002602052806000526040600020600091509050806000015490806001018054600181600116156101000203166002900480601f0160208091040260200160405190810160405280929190818152602001828054600181600116156101000203166002900480156103c15780601f10610396576101008083540402835291602001916103c1565b820191906000526020600020905b8154815290600101906020018083116103a457829003601f168201915b505050505090806002018054600181600116156101000203166002900480601f01602080910402602001604051908101604052809291908181526020018280546001816001161561010002031660029004801561045f5780601f106104345761010080835404028352916020019161045f565b820191906000526020600020905b81548152906001019060200180831161044257829003601f168201915b5050505050905083565b6000808154809291906001019190505550604051806060016040528060005481526020018381526020018281525060026000805481526020019081526020016000206000820151816000015560208201518160010190805190602001906104d1929190610591565b5060408201518160020190805190602001906104ee929190610591565b509050505050565b600160009054906101000a900473ffffffffffffffffffffffffffffffffffffffff1673ffffffffffffffffffffffffffffffffffffffff163373ffffffffffffffffffffffffffffffffffffffff161461055057600080fd5b6002600082815260200190815260200160002060008082016000905560018201600061057c9190610611565b60028201600061058c9190610611565b505050565b828054600181600116156101000203166002900490600052602060002090601f016020900481019282601f106105d257805160ff1916838001178555610600565b82800160010185558215610600579182015b828111156105ff5782518255916020019190600101906105e4565b5b50905061060d9190610659565b5090565b50805460018160011615610100020316600290046000825580601f106106375750610656565b601f0160209004906000526020600020908101906106559190610659565b5b50565b61067b91905b8082111561067757600081600090555060010161065f565b5090565b9056fea265627a7a7231582062bae37e97809a4f21bb162e7aee48006de4e188c823d81aa6350a66b78dadf764736f6c63430005100032",
  "source": "// SPDX-License-Identifier: GPL-3.0\npragma solidity >=0.4.22 <0.9.0;\n\ncontract Contacts {\n    uint256 public count = 0;\n    address owner;\n    constructor() public {\n        owner = msg.sender;\n        createContact(\"Furkan Ozbek\", \"99999999\");\n    }\n\n    struct Contact {\n        uint256 id;\n        string name;\n        string phone;\n    }\n\n    modifier onlyOwner {\n        require(msg.sender == owner);\n        _;\n    }\n    mapping(uint256 => Contact) public contactList;\n\n    \n\n    function createContact(string memory _name, string memory _phone) public {\n        count++;\n\n        contactList[count] = Contact(count, _name, _phone);\n    }\n\n    function deleteContact(uint256 contactId) public onlyOwner{\n        delete contactList[contactId];\n    }\n}\n",
  "sourcePath": "/Users/afozbek/Desktop/projects/example-blockchain/contracts/contracts/Contacts.sol",
  "compiler": {
    "name": "solc",
    "version": "0.5.16+commit.9c3226ce.Emscripten.clang"
  },
  "schemaVersion": "3.4.4",
  "updatedAt": "2022-02-02T19:51:06.149Z",
  "devdoc": {
    "methods": {}
  },
  "userdoc": {
    "methods": {}
  }
}